:100000000C9434000C9449000C9449000C94490061
:100010000C9449000C9449000C9449000C9449003C
:100020000C9449000C9449000C9449000C9449002C
:100030000C9449000C9449000C9449000C9449001C
:100040000C9449000C9449000C9449000C9449000C
:100050000C9449000C9449000C9449000C944900FC
:100060000C9449000C94490011241FBECFEFD8E036
:10007000DEBFCDBF11E0A0E0B1E0E0E4F1E002C0FE
:1000800005900D92A831B107D9F70E944B000C944E
:100090009E000C940000CF93DF93CDB7DEB7689736
:1000A0000FB6F894DEBF0FBECDBF259A8E010F5E4E
:1000B0001F4FBE01675F7F4FAE01475E5F4F680114
:1000C0007B0130E288E0E0E0F1E0D60101900D92A2
:1000D0008A95E1F788E0E8E0F1E0D70101900D9220
:1000E0008A95E1F788E0E0E1F1E0DE011196019008
:1000F0000D928A95E1F7F801CE0101965B012191FD
:10010000222341F0D5012C91211116C0DC012C9144
:10011000222391F015B8BFEF23EDA0E3B1502040AA
:10012000A040E1F700C000000196BFEFAB1ABB0A88
:10013000E417F50721F7C6CF35B9EDCFF894FFCF17
:1001400000000000010101010000010100000101A7
:080150000001000100010001A3
:00000001FF
